:020000040001F9
:10D00000583A0020F5D001000FD1010011D10100E4
:10D010000000000000000000000000000000000010
:10D0200000000000000000000000000013D101001B
:10D03000000000000000000015D1010017D1010020
:10D0400019D1010019D10100B5D3010019D1010096
:10D0500019D101000000000085D2010019D10100A2
:10D0600019D1010019D1010019D1010019D1010014
:10D0700019D1010019D1010019D1010019D1010004
:10D0800019D1010019D1010019D1010019D10100F4
:10D0900019D1010019D101003DD3010019D10100BE
:10D0A00019D1010019D101000000000000000000AA
:10D0B0000000000000000000000000000000000070
:10D0C0000348854600F0AAF800480047150802000A
:10D0D000583A0020401E00BF00BF00BF00BF00BF85
:10D0E00000BF00BF00BF00BF00BF00BF00BFF1D145
:10D0F000704700000321094802680A43026008489B
:10D1000002680A4302600748804707480047FEE775
:10D11000FEE7FEE7FEE7FEE7FEE70000240500402D
:10D120005405004061D30100C1D0010030B50B4669
:10D13000014600202022012409E00D46D5409D42F1
:10D1400005D31D469540491B254695404019154677
:10D15000521E002DF1DC30BD03460B439B0703D06C
:10D1600009E008C9121F08C0042AFAD203E00B78AC
:10D170000370401C491C521EF9D27047D2B201E024
:10D180000270401C491EFBD270470022F6E710B522
:10D1900013460A4604461946FFF7F0FF204610BD25
:10D1A00030B504460020034600E05B1C934203D2E6
:10D1B000E05CCD5C401BF8D030BDF0B51FB4064636
:10D1C000002082B005464024019100901BE00199A7
:10D1D00022460F46304600F043F8049A059B801A19
:10D1E000994110D310461946224600F029F8361A04
:10D1F0008F410197224601200021009F00F020F876
:10D2000038184D4100902046641E0028DFDC019B49
:10D2100000982946324607B0F0BD0000064C0125B3
:10D22000064E05E0E36807CC2B430C3C98471034CE
:10D23000B442F7D3FFF748FFB01B0200D01B020037
:10D2400010B5202A04DB0146203A9140002010BD91
:10D25000914020239C1A0346E3401943904010BD9F
:10D2600010B5202A04DB0846203AD040002110BD2A
:10D270000B46D340D0402024A21A914008431946BF
:10D2800010BD0000F0B52A4885B004692948002186
:10D29000C1630E46284F45E0142079687043451855
:10D2A0000120B968B04008423AD0002000900390B5
:10D2B000E8682968C043604008400146029028465B
:10D2C00004F0B4F81A48006929686040084016D094
:10D2D000224642400192E868C0435040084001465F
:10D2E0000090284604F0A2F8019A0098A96890439B
:10D2F0000140039100986968024011400091029832
:10D30000A968A04301400398029A0143686822403B
:10D310001040009A104302460A4301D02A69904700
:10D32000761CF6B278788642B6D305B0F0BD000020
:10D3300000050050406100404428002010B5074817
:10D340004068002807D08047002803D000221146FB
:10D3500000F036FB10BD03F0D1F910BD68280020A5
:10D3600010B503F02DFA002805D00E490C4848608E
:10D37000C8130D4988610D48018CC9B201290ED12D
:10D38000818C09070BD1018D0906090F042906D1EB
:10D39000808D0006000F02D105490120886010BD74
:10D3A000DFFF07C000050040006C0040C00F00F028
:10D3B000000600407CB51B4CA0681B4E00250028D1
:10D3C00018D0A56019488069C1B2194800F053FB14
:10D3D000002805D001216A4611700190684607E0D7
:10D3E00013488168C068401A012803D16846057057
:10D3F000B1688847E069002803D0E561032003F0A5
:10D4000077FC606A00280BD065620849803908689B
:10D41000086002216A4611700190B1686846884729
:10D420007CBD0000002100402C2800200025004089
:10D43000D03000200FB410B503A9044B044A029861
:10D4400000F024F810BC08BC04B0184731000200FA
:10D450006428002030B47446641E2578641CAB42F6
:10D4600000D21D46635D5B00E31830BC184702E044
:10D4700008C8121F08C1002AFAD17047704700205F
:10D4800001E001C1121F002AFBD17047FFB591B026
:10D490000F460546002606E025280AD0149A13995F
:10D4A00090476D1C761C28780028F5D1304615B0C1
:10D4B000F0BD002400940121F34A029400E00443EB
:10D4C0006D1C2B780846203B98401042F7D12878F5
:10D4D0002A280ED0022128780246303A092A15D887
:10D4E000009A0A235A43303A80180C436D1C00906E
:10D4F000F1E701CF0090002805DA01204003044342
:10D50000009840420090022004436D1C28782E2889
:10D5100015D10420044368786D1C2A280AD101CF54
:10D520006D1C02900BE002990A22514330394018D9
:10D530006D1C02902878014630390929F3D92878E2
:10D540006C2810D006DC4C281AD068280ED06A2827
:10D5500017D104E0742813D07A2812D110E00120EA
:10D56000400504430CE00121090501E00321090500
:10D570000C436978814203D10120000524186D1CF9
:10D580006D1C287803906E281ED00CDC632831D0E7
:10D5900004DC00288AD0582811D1B2E064287BD05E
:10D5A00069280CD178E073282DD004DC6F2870D066
:10D5B000702804D1A7E075286CD078286BD0149A15
:10D5C00013999047761C62E06002400F022807D052
:10D5D00003280AD0042838680AD006603F1D56E0A8
:10D5E0003868F11706604160F8E738680680F5E7AB
:10D5F0000670F3E73878694608740020487404A878
:10D600000390012003E0386803900020C0433F1DD1
:10D6100061070FD5002101E00199491C029A01918F
:10D62000914213DA8142F7DB019A0399895C002960
:10D63000F2D10BE0002101E00199491C01918142E6
:10D64000FADB019A0399895C0029F5D101990098C8
:10D65000139A401A00902146149B00F03BF901995F
:10D660008019461807E0039803990078491C039134
:10D67000149A139990470198401E0190401CF2D1D2
:10D680002146149B139A009800F014F986196D1C1A
:10D6900009E741E033E034E00A20002104900591DD
:10D6A0006002410F022905D001CFC2179446032919
:10D6B00005D007E0FF1DFF08FF0003CF06E000B222
:10D6C000C2179446042902D140B2C1178C460022E9
:10D6D0006146944506DA0A460021404291418C4653
:10D6E0002D2102E0210504D52B216A461176012166
:10D6F00003E0E10701D02021F7E7019154E00A207F
:10D700000BE0102009E010200490002104200443C5
:10D7100008200591029003E0082000210591049063
:10D720006002410F022905D001CF0022944603294F
:10D7300006D006E0FF1DFF08FF0003CF8C4603E084
:10D7400080B2042900D1C0B20021019121072BD55C
:10D750000399702906D0049A1021059B4A401A4368
:10D7600005D00EE040216A461176012108E06146AD
:10D77000014306D030216A46117603995176022181
:10D780000191049A0821059B4A401A430CD1614635
:10D79000014301D1610707D530216A461176012185
:10D7A00001910299491E02910399582904D037A189
:10D7B00003910FA90F910DE039A1F9E76146059B8F
:10D7C000049AFFF7FAFC039B8C469B5C0F9A521E4F
:10D7D0000F92137061460143F0D10F9807A9081A00
:10D7E00020300390600704D5012000048443029890
:10D7F00001E0012002900399884201DD401A00E017
:10D80000002041180290019809180098401A0090D1
:10D81000E00306D42146149B139A009800F05AF8AE
:10D8200086190020049008E006A9085C149A139950
:10D8300090470498401C761C049001998842F3DBC1
:10D84000E0030CD52146149B139A009800F042F88F
:10D85000861904E0149A302013999047761C029997
:10D86000481E02900029F5DC08E00F980F99007817
:10D87000491C0F91149A13999047761C0399481EDE
:10D8800003900029F1DCFBE6092801003031323336
:10D8900034353637383961626364656600000000EC
:10D8A00030313233343536373839414243444546D6
:10D8B00000000000F8B5044600251E4617468804FF
:10D8C00004D405E039462020B0476D1C641EF9D50C
:10D8D0002846F8BDFFB50446002581B01E46C803A2
:10D8E00001D5302700E02027880404D505E038461C
:10D8F0000399B0476D1C641EF9D5284605B0F0BDEC
:10D9000038B50D4C6078022802D00C49012088609F
:10D9100069460B4800F08CF8002802D000F016F899
:10D9200038BD0848802181606A46074B1278DA6169
:10D9300002226270416038BD2C2800200020004087
:10D94000E030002000230040002500401CB50649BF
:10D950000120C8600549487003206A461070896834
:10D96000684688471CBD0000002000402C2800208D
:10D9700004490020487004490122CA604A600349F2
:10D98000086070472C28002000200040002500403F
:10D9900070B500238D880C680DE0E6187678E15CA0
:10D9A000864206D1E018801C491E1060918000203C
:10D9B00070BD5B185B1C9D42EFD8052070BD000058
:10D9C000BFF34F8F04490348C860BFF34F8F00BFB8
:10D9D000FDE700000400FA0500ED00E0F8B5074699
:10D9E00006480D4604681646097805A0FFF722FD93
:10D9F000324629463846A047F8BD00002C300020AA
:10DA00005B444D5D3A204E6F74696679696E67209C
:10DA10006170706C69636174696F6E206F662065F8
:10DA200076656E74203078253032580D0A0000007B
:10DA30008268C36893420AD0826883881A40036868
:10DA40009A5C0A708168491C81600020704705203B
:10DA50007047002906D0002A02D0531E134203D07B
:10DA6000092070470E20704701608380002181608B
:10DA7000C160084670478268C3689B1A82889342D7
:10DA800008D8C36813400268D154C168491CC160FA
:10DA900000207047042070470A4B5A68002A04D0BF
:10DAA0005B78984203D307207047082070471423FF
:10DAB00058438018044A12690068024000200A6036
:10DAC000704700004428002000050050F0B51F4AB0
:10DAD0005168002904D05378984203D30720F0BD41
:10DAE0000820F0BD1A4B0025DD631A4B1C699768AE
:10DAF000002F02D1184EDB057360012686403E439D
:10DB00009660142250434218D560002201230D581C
:10DB100093401D4215D01C4202D003252D0405E080
:10DB200001256D044618F7681F43F7600B4B9600FC
:10DB3000F3181E6803273F04BE431E601E682E4371
:10DB40001E60521C202AE1D30020F0BD4428002092
:10DB50004061004000050050006300400007005095
:10DB6000F8B5114F84467D68002D07D0002B07D0F3
:10DB700078783C78A04205D30420F8BD0820F8BD91
:10DB80000720F8BD0E461424164344432E51641951
:10DB90002361A260616061460870411C797003F0E6
:10DBA00035F90020F8BD00004428002038B50C46A7
:10DBB000A268064B12019D580978628800920246BD
:10DBC000204608302369A84738BD000044310020B2
:10DBD00070B50F4B05241D785E78AE4215D01D78C8
:10DBE0001C789E88B44201DA641C00E000241C709A
:10DBF0005C88DE686C43A41904609B68E800C41864
:10DC0000A4880C80185800241060204670BD0000C5
:10DC1000502800200EB504E068468188029A0098DA
:10DC2000904702AA01A96846FFF7D2FF0028F3D067
:10DC30000EBD000030B5CB0008339DB29307002421
:10DC4000002B01D0072030BD044B9A605219DA60D6
:10DC50005C701C7058809980002030BD50280020D6
:10DC600070B506460D4608A0FFF7E4FB002404E06B
:10DC7000315D06A0FFF7DEFB641CAC42F8D302A0C6
:10DC8000FFF7D8FB70BD00000D0A0000307825308A
:10DC90003258200000B50D4A89B007CA05AB07C34A
:10DCA0000020694608840A48019001200290094832
:10DCB0000390FF200130049008A800900323064A37
:10DCC00001A905A800F00AF809B000BD3417020048
:10DCD00060280020543100202D160200FFB581B0CD
:10DCE0000446674D00200A9E0F466870AA6000290E
:10DCF00058D0B888396882B26248FFF7AAFE002877
:10DD000051D1B889B96882B25E481030FFF7A1FEE0
:10DD1000002848D16078032781005B4809180F600C
:10DD20002278002192001018016058486278C26081
:10DD300022784261A2684262544B62794033002AE1
:10DD400002D00E22DA6200E0D9622279022A06D0DD
:10DD5000012A4F4F32884ED0002A63D066E0A17866
:10DD60008A00494951180F60A27801210F46974057
:10DD7000484A57608A1E0261A2788260D86A0843C6
:10DD8000D862E0780A4682406A60830003223E48F7
:10DD9000120418180260E07881403088002804D00E
:10DDA000FF280FD2072005B0F0BD35483A4B0A4690
:10DDB000801CFFF7D5FE0028F5D1A8780002FF30BF
:10DDC000308001E0000AA8706946A878FFF764FE79
:10DDD0000028E8D1A878FFF779FE0028E3D1E178A0
:10DDE000012088400099084201D1012000E0002074
:10DDF00002F07EFF2BE0002A03D12A783280521CE9
:10DE00002A7004220260254A9160D161DA6A0121F8
:10DE10000A43DA62E2780261A2788260B96039600E
:10DE2000697014E02A783280521C2A700422026041
:10DE30001A4A9160D161D96A49084900D962002122
:10DE4000C943816001610120B860386068700021B9
:10DE50001348C9438160A121890041601148042110
:10DE60000160114B04981A68FF2424048007000EF7
:10DE7000A243000402431A600C480160002092E7AC
:10DE80002C280020D0300020000700500025004042
:10DE90000020004000050050210602000021004043
:10DEA0000023004080E200E000E400E000E100E048
:10DEB00010B501460448FFF7DEFD0446022002F0DB
:10DEC00017FF204610BD0000E030002030B50028CC
:10DED00015D0002913D00E4A1378002B11D0936867
:10DEE000022B10D011D20B4CDD002C190588258097
:10DEF000408860805B1C61600020936030BD0E2014
:10DF000030BD082030BD062030BD042030BD0000EB
:10DF10001C2800205030002000210448012281608C
:10DF20000270C16041600846704700001C28002054
:10DF300070B5002815D0002913D0244A1278002A81
:10DF40000FD00A88302A17D00CDC04464034102A3F
:10DF500010D0112A05D16221FFF717F90020C04324
:10DF6000A08370BD322A2DD0332AFAD1091D02F0C8
:10DF70002FFE70BD8888F3E70546C888091D002874
:10DF800007D00021284601F095F8284602F078FED7
:10DF900070BD2C46603420782E22504340194A89A7
:10DFA00002808A894280CA894285098A81852846F9
:10DFB00000F086F80100EBD000206070284601F0E8
:10DFC000AFF870BD091D02F095FD70BD1C28002042
:10DFD00070B500280DD0174A1378002B0BD093682A
:10DFE000002B08D0054660356B78002B05D011203A
:10DFF00070BD0E2070BD082070BD0023D36053603B
:10E000000246403204462B700B48918301882180E0
:10E01000408860801646928B89B20848FFF70AFA5A
:10E02000B08B2246012190DF0028E5D101206870E5
:10E03000002070BD1C28002050300020041B02006E
:10E0400010B5044601F094F8204600F067F8204629
:10E0500002F0BAFC10BD000008B5002348221549A3
:10E06000082003F015FA002803D000221146FFF71C
:10E07000A7FC00206946009048700220087068469E
:10E0800060DF002803D000221146FFF799FC0A4800
:10E0900003F0F4F9002803D000221146FFF790FCAA
:10E0A000064803F00DFA002803D000221146FFF7BE
:10E0B00087FC08BDBC2B002041E0010005160200D2
:10E0C00008B56021095C2E22514309184030C27FF7
:10E0D000002A08D0521ED2B20C235A435218D289B9
:10E0E0006B46521C01E04A8D6B461A80898D59801F
:10E0F000808B194692DF08BD0146074A002068233D
:10E1000043439B1840339B8B8B4203D0401C082811
:10E11000F5D30820704700007C28002070B5054624
:10E1200000248088FFF7E8FF082803D068212E4AE2
:10E1300041438C182988042637290AD038292CD045
:10E14000392943D0002C03D029462046FFF7F0FEA2
:10E1500070BDE888C11FFE3901D00A3909D12046B7
:10E16000623001F0B7FE002803D000221146FFF70D
:10E1700027FC002CECD020466030C1790229E3D185
:10E1800081790C2359430919AA89098A8A4201D045
:10E19000C671D9E70321C171D6E7002CD8D021463A
:10E1A0006031CA79032ACFD189790C2359430919DF
:10E1B000AA89C9898A42C7D1298A0129C4D10328D9
:10E1C000C2D2A97C09A0FFF735F9BDE7287B00285A
:10E1D00004D0002211461046FFF7F2FB002CB7D006
:10E1E00020466030D4E700007C28002025630A0028
:10E1F00070B5044640786822144D504340190126FA
:10E200006030C671607850434019403081831049B6
:10E210000878401C08706078214650434019042259
:10E220006230FEF799FF6078682148434019672102
:10E230000E545C21095AFFF7CBFE002803D00022C0
:10E240001146FFF7BDFB002070BD00007C280020B8
:10E25000002800203EB50246517868235943114BEF
:10E26000114DC91838CD6031029501940093CB79D6
:10E270000020002B14D00D4C23785B1E237000234C
:10E28000CB71517803290AD289006A46525C012178
:10E290009140072252051140054A9160D3603EBD6E
:10E2A00008203EBD7C280020D41602000028002053
:10E2B0000005005010B5407868235843054B097895
:10E2C000C018152903D1002A01D102F04DFB00200E
:10E2D00010BD00007C28002010B51A4B86B00FCB73
:10E2E0006C460FC41849684663DF002803D000223B
:10E2F0001146FFF765FB0020144A0146682343439B
:10E300009B186033401CD9710828F7D30E4C641E4B
:10E310002170FFF701FE002803D000221146FFF70D
:10E320004FFB61786846817409490182094904A854
:10E33000FFF7CCFD002803D000221146FFF740FB79
:10E3400006B010BDC4160200012800207C28002061
:10E350002022000065E60100F8B53B4914230A7845
:10E360000F205A43541821792569384E241D02295B
:10E370001AD004292ED0052964D102F0F3FD0146FC
:10E380002846FEF7D3FE064602F0ECFD0146A088C3
:10E3900071434019401A870802F0E4FD711C48439C
:10E3A000A1886288891836E0B08822698002618875
:10E3B0001318091AA28828181018012292029142F3
:10E3C00003D28A08194629DF37E0FF2201321946B5
:10E3D00029DF32E0A2681C4811015430091808896D
:10E3E0004B894968A94203D16188584388421BD0B0
:10E3F000022A19D002F0B6FD01462846FEF796FE25
:10E40000064602F0AFFD7043281A870802F0AAFD05
:10E41000711C484361883A464919401A83083146BD
:10E42000204603F059F808E002F09CFD014628461A
:10E43000FEF77CFEB188401828DF002802D102498F
:10E4400001228A70F8BD0000F0300020382800203A
:10E4500010B5084900204A78002A09D08978002997
:10E4600006D1FFF779FF002802D0112800D1002043
:10E4700010BD0000F030002014225043054A002156
:10E4800080180171C18001220161C2604161018176
:10E4900070470000F0300020F8B5134C069E6578F8
:10E4A000042D1FD027787D19EDB2042D01D32D1F27
:10E4B000EDB214277D432D192871002068716A611F
:10E4C00003C92961E860EB802E81A1780020002932
:10E4D00004D1FFF741FF112800D100206178491CC9
:10E4E0006170F8BD0420F8BDF030002070B504461E
:10E4F0000DA0FEF79FFF22460121184800F062F8A8
:10E50000050005D016A0FEF795FF0425284670BD2E
:10E510001FA02168FEF78EFF20680C225043284A76
:10E52000022180188172F1E75B444D5D3A2052650B
:10E53000717565737420746F20616C6C6F636174A6
:10E54000696F6E20636F6E6E656374696F6E2069AC
:10E550006E7374616E63650D0A000000FFFF0000BA
:10E560005B444D5D3A204E6F206672656520636F97
:10E570006E6E656374696F6E20696E7374616E632D
:10E58000657320617661696C61626C650D0A0000DB
:10E590005B444D5D3A5B253032585D3A20436F6EE7
:10E5A0006E656374696F6E20496E7374616E636526
:10E5B00020416C6C6F63617465642E0D0A0000006D
:10E5C000CC2F0020F0B59446044608200B4A0C4D91
:10E5D00000230C265E437619B77A0F4209D0944285
:10E5E00002D03089A04203D1604603600020F0BD14
:10E5F00005205B1C082BECD3F0BD0000FFFF0000E2
:10E60000CC2F002010B50446014608A0FEF712FFEB
:10E610000C2044431248012120188172891E018177
:10E62000FF21C1720721FEF7B0FD10BD5B444D5DB7
:10E630003A20496E697469616C697A696E67204332
:10E640006F6E6E656374696F6E20496E7374616E70
:10E650006365203078253038582E0D0A0000000000
:10E66000CC2F0020F8B504464088FFF745FD68210F
:10E670004843104940182178002917D10F4A0E4EFF
:10E680005578237A10E00C224A43121957890A322E
:10E69000B74207D19278AA4204D16622115402F0FF
:10E6A00063F9F8BD491CC9B28B42ECD80421603033
:10E6B000C171F8BD7C280020212200000028002024
:10E6C000F3B50546603000782E2148432E464719A1
:10E6D0004036F47F0C206043C1193A79601C891DD3
:10E6E00083B0904226D101AB0022284602F046F8C2
:10E6F000002822D010E0401EA04201D1002003E0FB
:10E700000C206043C01912300246009001AB28462D
:10E7100002F034F8002807D0049800210170B08B73
:10E7200001A993DF05B0F0BDF07F0099401C641C87
:10E73000F077E4B23879A042DDD804980121017065
:10E740000020EFE7FEB504460F4635A0FEF772FE47
:10E75000A1786A463B4802F08BFB05005AD16278EB
:10E760000C20394950434018807A400629D4022FA2
:10E7700027D0A178012F2AD03448FEF75BFE344E13
:10E78000A0781821484333490023411818226846CD
:10E79000B047050020D0022F3AD020780C21484302
:10E7A000294960314018807A2B4980000A58214657
:10E7B00068469047050031D0014628A0FEF73AFE92
:10E7C00028E0A17833A0FEF735FE424ED8E742A0FC
:10E7D000FEF730FE4F4ED3E7022F1FD061780C209A
:10E7E00041431948BF220818817A182311408172C9
:10E7F00060781C2148431749C03141181C226846E3
:10E80000B0470200C9D0A17843A0FEF713FEC4E7C9
:10E81000002D03D0294650A0FEF70CFEFEBD0000DF
:10E820005B444D5D3A202D2D3E206465766963651D
:10E830005F636F6E746578745F73746F72650D0AD1
:10E840000000000014280020CC2F0020D81902005E
:10E85000D5140200CC2D0020041702005B444D5D4E
:10E860003A204661696C656420746F2073746F721E
:10E8700065207365727669636520636F6E74657871
:10E88000742C20726561736F6E20253038580D0A24
:10E89000000000005B444D5D3A5B44492025303266
:10E8A000585D3A5B434920253032585D3A202D3E71
:10E8B000205570646174696E6720626F6E64696E62
:10E8C0006720696E666F726D6174696F6E2E0D0AD6
:10E8D00000000000251302005B444D5D3A5B444993
:10E8E00020253032585D3A5B434920253032585D4F
:10E8F0003A202D3E2053746F72696E6720626F6EEE
:10E9000064696E6720696E666F726D6174696F6E9F
:10E910002E0D0A006D1102005B444D5D3A5B3078AC
:10E92000253032585D3A4661696C656420746F2009
:10E9300073746F726520626F6E6420696E666F72A9
:10E940006D6174696F6E2C20726561736F6E20301B
:10E9500078253038580D0A005B444D5D3A204661F9
:10E96000696C656420746F2073746F7265206465D0
:10E970007669636520636F6E746578742C207265A8
:10E9800061736F6E20253038580D0A00F3B51E4FA5
:10E990001E4E83B000241820604385192A7C21462E
:10E9A0001BA0FEF747FD287DAA7D697D6B4607C346
:10E9B000EB7CAA7C697C20A0FEF73CFDE87DFF286B
:10E9C00005D0641C082CE6D3384605B0F0BD049889
:10E9D000007802280AD0182060438019FD21C175F3
:10E9E000072210300499FEF7B7FB04E018206043BB
:10E9F0008019FE21C17503980027047021461EA0CE
:10EA0000FEF718FDE0E7000043800000CC2D002059
:10EA10005B444D5D3A5B4449203078253032585D87
:10EA20003A20446576696365207479706520307892
:10EA3000253032582E0D0A005B444D5D3A20446566
:10EA400076696365204164647220307825303258DD
:10EA50002030782530325820307825303258203018
:10EA600078253032582030782530325820307825BB
:10EA70003032582E0D0A00005B444D5D3A20416C47
:10EA80006C6F636174656420646576696365206991
:10EA90006E7374616E6365203078253032580D0ACC
:10EAA00000000000F3B506468279417983B0007911
:10EAB0006B4607C30527F378B27871781748FEF7DD
:10EAC000B9FC002518202946414315480C18227C22
:10EAD000294614A0FEF7AEFC207DA27D617D6B4629
:10EAE00007C3E37CA27C617C18A0FEF7A3FC204650
:10EAF000103007223146FEF753FB002805D06D1C6D
:10EB0000082DDFD3384605B0F0BD29461FA0FEF71B
:10EB100091FC049800270560F4E70000C817020084
:10EB2000CC2D00205B444D5D3A5B44492030782574
:10EB30003032585D3A204465766963652074797097
:10EB400065203078253032582E0D0A005B444D5D2B
:10EB50003A204465766963652041646472203078A8
:10EB60002530325820307825303258203078253002
:10EB700032582030782530325820307825303258BD
:10EB8000203078253032582E0D0A00005B444D5D50
:10EB90003A20466F756E642064657669636520610E
:10EBA0007420696E7374616E63652030782530322D
:10EBB000580D0A00FEB5044608780F46154615287C
:10EBC0006CD009DC594E11280DD0122839D01328E9
:10EBD0005DD014284ED173E021287FD022286ED03A
:10EBE000232847D194E0617851A0FEF723FC786890
:10EBF000037AC27981790293019200914379027973
:10EC0000C1785548FEF716FC52A0FEF713FC617858
:10EC100052A0FEF70FFC786801882046FFF7E8FA5B
:10EC2000002803D000221146FEF7CAFE3078401CAF
:10EC3000C0B23070082801D202F0DAFB617854A02B
:10EC400016E061785CA0FEF7F5FB2046FFF702FBBB
:10EC5000002803D000221146FEF7B2FE30780828C3
:10EC600001D102F0C5FB3078401E307061785DA0A4
:10EC7000FEF7E0FB2A4639462046FFF71BFB00283B
:10EC800003D000221146FEF79BFE0020FEBD0422A9
:10EC900021466846FEF760FA617800E017E05CA064
:10ECA000FEF7C8FB684601F015F9002803D00022E2
:10ECB0001146FEF785FE617860A0D9E70EE01AE004
:10ECC00061786948FEF7B6FB617868A0D0E76178A3
:10ECD00073A0FEF7AFFB61787FA0C9E7617889A0D8
:10ECE000FEF7A8FB280003D000221146FEF768FEBD
:10ECF00061788FA0BCE761789AA0FEF79BFB2800A3
:10ED000003D000221146FEF75BFE6178A2A0AFE7B8
:10ED10006178AEA0FEF78EFB280003D000221146DA
:10ED2000FEF74EFE6178B6A0A2E7000002280020A0
:10ED30005B4150504C5D3A5B3078253032585D2055
:10ED40003E3E20444D5F4556545F434F4E4E454333
:10ED500054494F4E0D0A0000841702005B41505089
:10ED60004C5D3A5B4349203078253032585D3A207B
:10ED700052657175657374696E67204741545420FC
:10ED8000636C69656E74206372656174650D0A0059
:10ED90005B4150504C5D3A5B3078253032585D20F5
:10EDA0003C3C20444D5F4556545F434F4E4E4543D7
:10EDB00054494F4E0D0A00005B4150504C5D3A5B88
:10EDC0003078253032585D203E3E20444D5F455618
:10EDD000545F444953434F4E4E454354494F4E0DA3
:10EDE0000A0000005B4150504C5D3A5B30782530A2
:10EDF00032585D203C3C20444D5F4556545F4449A9
:10EE000053434F4E4E454354494F4E0D0A000000A8
:10EE10005B4150504C5D3A5B3078253032585D2074
:10EE20003E3E20444D5F4556545F5345435552493D
:10EE300054595F53455455500D0A00005B415050E2
:10EE40004C5D3A5B3078253032585D203C3C2044A4
:10EE50004D5F4556545F53454355524954595F538E
:10EE6000455455500D0A0000401702005B415050B8
:10EE70004C5D3A5B3078253032585D203C3C204474
:10EE80004D5F4556545F53454355524954595F535E
:10EE9000455455505F434F4D504C4554450D0A0065
:10EEA0005B4150504C5D3A5B3078253032585D20E4
:10EEB0003E3E20444D5F4C494E4B5F5345435552B7
:10EEC00045445F494E442C20726573756C74203044
:10EED00078253038580D0A005B4150504C5D3A5B44
:10EEE0003078253032585D203C3C20444D5F4C4901
:10EEF0004E4B5F534543555245445F494E440D0ABE
:10EF0000000000005B4150504C5D3A5B307825308A
:10EF100032585D203E3E20444D5F4556545F4C497B
:10EF20004E4B5F534543555245440D0A00000000C7
:10EF30005B4150504C5D3A5B3078253032585D2053
:10EF40003C3C20444D5F4556545F4445564943453B
:10EF50005F434F4E544558545F4C4F414445440D18
:10EF60000A0000005B4150504C5D3A5B3078253020
:10EF700032585D203E3E20444D5F4556545F444527
:10EF8000564943455F434F4E544558545F53544F81
:10EF90005245440D0A0000005B4150504C5D3A5B05
:10EFA0003078253032585D203C3C20444D5F45563A
:10EFB000545F4445564943455F434F4E544558546A
:10EFC0005F53544F5245440D0A0000005B415050BE
:10EFD0004C5D3A5B3078253032585D203E3E20440F
:10EFE0004D5F4556545F4445564943455F434F4E38
:10EFF000544558545F44454C455445440D0A00005F
:10F000005B4150504C5D3A5B3078253032585D2082
:10F010003C3C20444D5F4556545F4445564943456A
:10F020005F434F4E544558545F44454C4554454406
:10F030000D0A00001FB501F09BFF002803D000223D
:10F040001146FEF7BDFC00206946087303A800F0D6
:10F0500059FC002803D000221146FEF7B1FC01A89C
:10F0600005210130FEF791F810480223694600900F
:10F070000B714879012210431843E3210840DF2136
:10F080000C30084069464871072088711020C8710B
:10F09000087A104318430872054800F0B9FE0028AA
:10F0A00003D000221146FEF78BFC1FBDB5EB01001B
:10F0B00005280020F3B50446603000782E2148432F
:10F0C000071981B0384602F075F9060023D0124DB9
:10F0D000686802281FD24034A18B38220F4C50435D
:10F0E000031959800299002907D0002121542E22AA
:10F0F0003946181DFEF730F801E0022121546868F6
:10F10000382141430919401C4E636860A968884250
:10F1100001D101F065FEFEBD1C28002060300020FA
:10F12000F8B5044660300D4600782E21484300199A
:10F1300002F040F9010016D00B484268022A12D2B0
:10F1400040343823A68B5343084C1F461B195E805E
:10F150000126E6555D60521C596342608068824218
:10F1600001D101F03DFEF8BD1C28002060300020D8
:10F17000F0B50546F4480027007895B0002866D021
:10F18000F24E3068002862D002A800F0ADFB0028E3
:10F1900003D000221146FEF713FC00201490281D16
:10F1A00004902A2069468882FF2088720020087215
:10F1B0000C90E64C2888603C10280ED0A8880CAA39
:10F1C0000221FFF7FFF9002807D10C980C214143D9
:10F1D0000919CA7A69468A724872288817287CD029
:10F1E00037DC102845D0112878D013282FD1D8A08B
:10F1F000FEF720F9A879C007C00F0090687A410790
:10F20000CB0F8107CA0FC107C90FDCA0FEF712F9A7
:10F2100000200C991C22E34B4A430B90D218069213
:10F220000C22514309900A900919C97A18225143B6
:10F230001A46C03A8918079108900022A88806ABA0
:10F2400011467FDF01007DD0D7A0FEF7F3F815B09F
:10F25000F0BD182877D01C2876D05228F7D1E2A02C
:10F26000FEF7E8F8B07A8100EA48415802A88847DA
:10F27000EDE70CA8FFF73AF90028E8D1112069461C
:10F2800008730C9848720C225043A9880019018118
:10F29000022181720722A91DFDF75EFF0FA9A81D9B
:10F2A000FFF700FC00281CD10C990C2251430919CE
:10F2B0000F98C8728A7A08231A438A72694688723C
:10F2C00081B2A1480DAA083001F0D2FD002809D072
:10F2D0000346D1480F9A0C9901E077E03EE0FEF733
:10F2E000A9F80DE1182101911C200C990090AD4D59
:10F2F00048434319C9480E9AFEF79CF81C210C9804
:10F300000A464843401918230DA901F069FE002858
:10F3100004D00246C2A00C99FEF78CF8342000906D
:10F320000C998A4A0C204843C03A82180C23CB48D7
:10F33000FEF780F8B07AB749800010390A5802A960
:10F340000DA802E039E0AEE0EFE190470028C8D018
:10F350000246C3A00C99FEF76DF8D1E0A979D0A0C0
:10F36000FEF768F80C980C2148430119887AFD22B1
:10F3700010408872010706D5C0090DD0002102A8EF
:10F38000FFF7E0F908E06846807AFF2804D001F032
:10F39000F3FCFF20694688720C980C214843001941
:10F3A000817A490703D5717A0127B9437172102117
:10F3B0008172122069460873A2E00C980C21484320
:10F3C0000019817A04221143817240E7A979BDA016
:10F3D000FEF730F8707A0C214008400070720C98EB
:10F3E000FB2248430019817A0127114081721420C1
:10F3F00069460873A879002801D0149080E006219E
:10F40000A81DFEF72DFC0C981C21484365494018A7
:10F410001C21FEF725FCE879400771D56846827A01
:10F42000FF2A6DD00C980C21844648430019817A3C
:10F43000082319438172A97A890709D5114618232F
:10F440005943584BC03BC918CB7D5B085B00CB755B
:10F45000C07AFF2854D06146A6A0FDF7EBFF0C98B8
:10F460000C214843215C022918D001196846807A92
:10F4700018224C4D5043C03D401907221030FDF773
:10F480006BFE6846807A182148434019C17DFD22F1
:10F490001140C17507211030FEF7E2FB012102A8DF
:10F4A000FFF750F92CE0A87901070209090F9B48E2
:10F4B000FDF7C0FFA879010901292BD10007000F32
:10F4C000012827D10C980C2148430119897A090792
:10F4D00020D51E49C03940180621001DFDF755FEF4
:10F4E0001620694608730C980C2148430119887A44
:10F4F000602210438872707A0127022108437072DB
:10F5000003A902A8149AFEF769FA6846007B12283C
:10F5100017D020E10C980C2148430019817A8022F1
:10F5200011438172152069460873B07A8100394809
:10F53000415802A88847002804D06846827A417A58
:10F54000EEE0F7E0EFE000000C2800202C30002077
:10F550005B444D5D3A203E3E20424C455F47415062
:10F560005F4556545F5345435F504152414D535F91
:10F57000524551554553540D0A0000005B444D5D02
:10F580003A203078253032582C20307825303258C7
:10F590002C203078253032582C20307825303258C5
:10F5A0000D0A00008C2E00205B444D5D3A2053650F
:10F5B00063757269747920706172616D65746572CA
:10F5C000207265706C792072657175657374206640
:10F5D00061696C65642C20726561736F6E20307890
:10F5E000253038582E0D0A005B444D5D3A203E3ED2
:10F5F00020424C455F47415454535F4556545F5336
:10F6000059535F415454525F4D495353494E470D2E
:10F610000A0000002417020010180200E41802007B
:10F620005B444D5D3A5B253032585D3A2046616956
:10F630006C656420746F206C6F616420426F6E642F
:10F6400020696E666F726D6174696F6E2C207265D1
:10F6500061736F6E20253038580D0A004019020082
:10F660005B444D5D3A5B253032585D3A2046616916
:10F670006C656420746F206C6F61642073657276B2
:10F6800069636520696E666F726D6174696F6E2C57
:10F6900020726561736F6E20253038580D0A0000A6
:10F6A0005B444D5D3A20446973636F6E6E656374AD
:10F6B00020526561736F6E203078253034580D0A02
:10F6C000000000005B444D5D3A203E3E20424C4528
:10F6D0005F4741505F4556545F415554485F53540E
:10F6E000415455532C207374617475732025303840
:10F6F000580D0A005B444D5D3A5B43492030782544
:10F700003032585D3A5B4449203078253032585DBC
:10F710003A20426F6E646564210D0A001C1A0200D3
:10F7200024A0FDF787FE002067E632A0FDF782FEE9
:10F7300013203FE638A00C99FDF77CFE0C990C20B5
:10F7400048430019807A012805D03FA0FDF772FEDA
:10F750000C98FEF757FF002F00D178E5707A8007EC
:10F76000FBD544A0FDF766FE06AA20214748FEF718
:10F7700029FF002807D046A0FDF75CFE707AFD2126
:10F780000840707263E50020694608710698487168
:10F790000C2148430019C07A6946887101A800F01D
:10F7A0005FFF694603468A7949793FA0FDF742FE2B
:10F7B0004DE500005B444D5D3A5B434920307825C0
:10F7C0003032585D3A5B4449203078253032585DFC
:10F7D0003A204661696C656420746F206170706CBA
:10F7E00079207365727669636520636F6E746578DE
:10F7F000740D0A005B444D5D3A203E3E20424C456C
:10F800005F4741505F4556545F5345435F524551F2
:10F81000554553540D0A00005B444D5D3A5B434926
:10F82000203078253032585D3A2046726565696E21
:10F830006720636F6E6E656374696F6E20696E73A7
:10F8400074616E63650D0A005B444D5D3A5B253063
:10F8500032585D3A20467265656420636F6E6E654E
:10F860006374696F6E20696E7374616E63652E0DCB
:10F870000A0000005B444D5D3A5175657565642072
:10F88000726571756573740D0A000000FFFF00005A
:10F890005B444D5D3A4E6F7468696E672070656EAB
:10F8A00064696E67210D0A005B444D5D3A5B434914
:10F8B000203078253032585D3A5B44492030782535
:10F8C0003032585D3A2053656375726974792072DD
:10F8D00065717565737420726573756C742030780A
:10F8E000253038580D0A0000002806D0FF2101708D
:10F8F00041708170C170002070470148704700005E
:10F900000E800000F0B5054687B047A0FDF792FDD8
:10F91000002D32D0002149A0FDF78CFD002754486E
:10F920003C460760477287722046FEF76BFE641CF8
:10F93000082CF9D34E486021C038FDF726FC00247E
:10F94000204601F019FA641C082CF9D344216846BA
:10F9500001820821418247480390474903A801F0EA
:10F9600091FB04000BD0014644A0FDF763FD53A0BA
:10F97000FDF760FD204607B0F0BD5548FBE73E4867
:10F98000012108380170287800280CD06946088ABF
:10F99000498A484381B2384801F094FA04464DA0A0
:10F9A000FDF748FDE3E73448416859A0FDF742FD03
:10F9B0000026B1B205AA304801F05AFA040003D07B
:10F9C000024631465A4814E031465AA0069AFDF7DD
:10F9D00031FD182031464143604800230818054690
:10F9E000182205A901F0FCFA040008D002463146AD
:10F9F0005B48FDF71FFD204808380770B7E72A7CF1
:10FA0000314658A0FDF716FD287DAA7D697D6B461D
:10FA100007C3EB7CAA7C697C5CA0FDF70BFD761C20
:10FA2000082EC6D3A3E700005B444D5D3A203E3E5E
:10FA300020646D5F696E69742E0D0A005B444D5D34
:10FA40003A20496E697469616C697A696E67204110
:10FA500070706C69636174696F6E20496E73746154
:10FA60006E6365203078253038582E0D0A0000006E
:10FA70002C300020CDFB0100142800205B444D5D9C
:10FA80003A204661696C656420746F20726567690D
:10FA90007374657220776974682073746F7261671C
:10FAA00065206D6F64756C652C20726561736F6E77
:10FAB000203078253038582E0D0A00005B444D5D0B
:10FAC0003A203C3C20646D5F696E69742E0D0A001B
:10FAD0000E8000005B444D5D3A205375636365738F
:10FAE0007366756C6C792072657175657374656485
:10FAF00020636C656172206F662070657273697334
:10FB000074656E7420646174612E0D0A000000003B
:10FB10005B444D5D3A2053746F7261676520686184
:10FB20006E646C65203078253038582E0D0A000040
:10FB30005C1802005B444D5D3A5B307825303258EA
:10FB40005D3A20426C6F636B2068616E646C652067
:10FB50003078253038582E0D0A000000CC2D0020BA
:10FB6000A01802005B444D5D3A5B44492030782583
:10FB70003032585D3A204465766963652074797047
:10FB800065203078253032582E0D0A005B444D5DDB
:10FB90003A20446576696365204164647220307858
:10FBA00025303258203078253032582030782530B2
:10FBB000325820307825303258203078253032586D
:10FBC000203078253032582E0D0A0000FFB56948E4
:10FBD00093B000681C9F1D4600287DD0442F7BD821
:10FBE00001A8FFF781FE002803D000221146FDF78F
:10FBF000E7FE0026684606710673344607970895A7
:10FC0000A1B20AAA5C4801F033F9002806D1082203
:10FC10000AA91398FDF7C4FA002818D0641C082C10
:10FC2000EED3684680790090FF2855D014980428B8
:10FC300010D052481821281AFDF778FA0127082811
:10FC400025D206A804901598002811D018E068461F
:10FC50008471E6E7442F09D040206946087368465E
:10FC6000017B032001436846017370E02020F4E724
:10FC700000983946814040480838406801426DD0BC
:10FC8000009801F015FD20206946087356E03B48B6
:10FC90001C21C030281AFDF749FA0446082823D24F
:10FCA00068464279817936A0FDF7C4FB06A8049026
:10FCB00020216846017344712E480F960C30109035
:10FCC0001C2044432D481821C03020180C90684651
:10FCD00080794843294900E040E040180D900CA885
:10FCE00008901820079029E0224C0C21C03C281BCA
:10FCF000FDF71CFA054608286846427900992FD27C
:10FD00002BA0FDF797FB302168460173EAB24271E0
:10FD1000C7710C204543204660302818807A800740
:10FD20000CD4684681792E48FDF784FB68464079FB
:10FD30000C214843001906604660866014986946A5
:10FD40000328087B13D0022108436946087306A8DC
:10FD5000049003A901A8159AFDF740FE17B0F0BD65
:10FD600020A0FDF767FB402168460173F6E73843A2
:10FD7000ECE700002C30002014280020CC2D0020BF
:10FD80005B444D5D3A5B3078253032585D3A5B30EC
:10FD900078253032585D3A20426F6E6420636F6E72
:10FDA00074657874204576656E740D0A0000000055
:10FDB0005B444D5D3A5B3078253032585D3A5B30BC
:10FDC00078253032585D3A20536572766963652034
:10FDD000636F6E74657874204576656E740D0A00E5
:10FDE0008C1902005B444D5D3A5B30782530325807
:10FDF0005D3A5B3078253032585D3A204170702092
:10FE0000636F6E74657874204576656E740D0A00B4
:10FE100070B5064616480C460078002815D01548DF
:10FE2000002E11D0002C0FD0216800290CD012A078
:10FE3000FDF700FB164D2868002809D00D4C0A3C40
:10FE400014A0FDF7F7FA204670BD0A48801F70BD68
:10FE500016A0FDF7EFFA206828600522611D281D15
:10FE6000FDF77AF92079A872002030700446E7E7A0
:10FE70000C2800200E8000005B444D5D3A203E3E81
:10FE800020646D5F72656769737465722E0D0A0078
:10FE90002C3000205B444D5D3A203C3C20646D5F7B
:10FEA00072656769737465722E0D0A005B444D5D5F
:10FEB0003A204170706C69636174696F6E20496E9D
:10FEC0007374616E636520616C6C6F6361746564EB
:10FED0002E0D0A00F8B504463748384E0078002841
:10FEE00025D0002C03D02078002820D102E0334810
:10FEF000801DF8BD324F3868002818D06078082877
:10FF000017D20C213D464843603D4019807A0128B4
:10FF10000FD02CA0FDF78EFA61780C2048434019D1
:10FF2000827A920742D5A278FF2A08D104E03046AF
:10FF3000F8BD22480830F8BDC27AFF2A0AD0C27A3A
:10FF4000A2701C225143284A00898A181146123196
:10FF500081DF2AE001466846FEF718FD060025D13C
:10FF600061780C226846514300784919C872A07024
:10FF700020785043C019407AC00713D01BA0FDF76A
:10FF800059FA60780C2148434019817A20221143A4
:10FF9000817220780C214843C019417A0222114312
:10FFA000417203E0204600F05BFB0646314615A097
:10FFB000FDF740FABBE700000C2800200880000095
:10FFC0002C3000205B444D5D3A203E3E20646D5F46
:10FFD00073656375726974795F73657475705F7248
:10FFE00065710D0A000000008C2E00205B444D5D01
:10FFF0003A204D61726B65642070656E64696E674E
:020000040002F8
:100000000D0A00005B444D5D3A203C3C20646D5F6E
:1000100073656375726974795F73657475705F7207
:1000200065712C203078253038580D0A000000000A
:1000300010B50446C0B2FDF73BFF204610BD0000DE
:1000400010B502A0FDF7F6F9002010BD5B444D5D30
:100050003A202D2D3E2067617474635F636F6E7468
:100060006578745F6170706C790D0A0010B502A03C
:10007000FDF7E0F9002010BD5B444D5D3A202D2DC9
:100080003E2067617474635F636F6E746578745F3C
:100090006C6F61640D0A000010B502A0FDF7CAF98B
:1000A000002010BD5B444D5D3A202D2D3E20676140
:1000B0007474635F636F6E746578745F73746F726A
:1000C000650D0A00F8B50446002637461CA0FDF76A
:1000D000B1F9234A60780C214143154653586035E5
:1000E00049198A7A01461FA0FDF7A4F960780C210E
:1000F00048431B490958002910D04019807AC1098A
:100100000CD040060AD423A0FDF794F961780C20A6
:10011000414313480E18405A361D87B260780C21AF
:1001200048434019008903233A463146A9DF002895
:1001300004D001461FA0FDF77DF92C48F8BD000052
:100140005B444D5D3A202D2D3E2067617474735FD2
:10015000636F6E746578745F6170706C790D0A00FE
:100160006C2F00205B444D5D3A5B4349203078257D
:100170003032585D3A2053746174652030782530F0
:1001800032582C2053697A65203078253038580D44
:100190000A0000005B444D5D3A2053657474696E3B
:1001A000672073746F72656420636F6E7465787412
:1001B0002E0D0A005B444D5D3A204661696C656412
:1001C00020746F207365742073797374656D20617A
:1001D0007474726962757465732C20726561736FD3
:1001E0006E203078253038582E0D0A0041800000EE
:1001F000F8B50C4607468A78497815A0FDF71AF934
:1002000060780C214843204E0A4680193423394631
:1002100000F0E6FE6178050005D002461BA0FDF760
:1002200009F92846F8BD0C204843335826487A6817
:10023000FDF700F960780C2148438019FDF710FDA7
:1002400060780C2148433158491CEAD13150E8E725
:100250005B444D5D3A5B4349203078253032585D30
:100260003A5B4449203078253032585D3A202D2DB4
:100270003E2067617474735F636F6E746578745F3A
:100280006C6F61640D0A00006C2F00205B444D5DB3
:100290003A5B253032585D3A204661696C656420CE
:1002A000746F206C6F61642053657276696365209A
:1002B000636F6E746578742C20726561736F6E2045
:1002C000253038580D0A0000601A0200FEB50C46B1
:1002D000074606206946088138A0FDF7ABF860782C
:1002E0000C2148433D4E02AA801900890323694628
:1002F000AADF002860D160780C2148433546603D74
:10030000401969460A89001DFCF74AFF00280BD0F6
:1003100060780C2148432858A17800281BD030A0D1
:10032000FDF788F83B4E1AE0A1783BA0FDF782F874
:1003300061780C2048438019807A80073CD445A01E
:10034000FDF778F860780C214843401900210160DE
:100350004160816030E04DA0FDF76CF8564E684674
:10036000028960780C2148432A506078484340193C
:100370006946001DFCF7F0FE60780C2148434019E7
:10038000FDF76EFC60780C2148432A58A1784BA0F9
:10039000FDF750F860780C214843411934230C22B2
:1003A0003846B047020004D0A1784EA0FDF742F8CD
:1003B00002E05CA0FDF73EF80020FEBD5B444D5D11
:1003C0003A202D2D3E2067617474735F636F6E74E5
:1003D0006578745F73746F72650D0A00CC2F00200E
:1003E0005B444D5D3A5B3078253032585D3A20559C
:1003F00070646174696E672073746F7265642073D2
:1004000065727669636520636F6E746578740D0A32
:1004100000000000251302005B444D5D3A5B30781C
:10042000253032585D3A204E6F206368616E6765F3
:1004300020696E20474154545320436F6E74657891
:100440007420696E666F726D6174696F6E2E0D0A2D
:10045000000000005B444D5D3A5B30782530325837
:100460005D3A20526573657474696E672047415424
:10047000545320666F722061637469766520696EDB
:100480007374616E63652E0D0A0000005B444D5D60
:100490003A5B3078253032585D3A2053746F726978
:1004A0006E67207365727669636520636F6E74652D
:1004B00078740D0A000000006D1102005B444D5D70
:1004C0003A5B3078253032585D3A204741545453D6
:1004D00020446174612073697A6520307825303852
:1004E000580D0A005B444D5D3A5B30782530325838
:1004F0005D3A4661696C656420746F2073746F7235
:1005000065207365727669636520636F6E746578C4
:10051000742C20726561736F6E20307825303858E6
:100520000D0A00005B444D5D3A20536572766963A5
:100530006520636F6E74657874207375636365738B
:100540007366756C6C792073746F7265642E0D0A16
:100550000000000010B5044605A0FCF76BFF204624
:10056000FFF7B0FD002802D12046FFF769FD10BD5E
:100570005B444D5D3A202D2D3E206761747473639A
:100580005F636F6E746578745F6170706C790D0A6B
:100590000000000070B505460C4607A0FCF74AFFB6
:1005A00021462846FFF724FE002803D1214628468D
:1005B000FFF75CFD70BD00005B444D5D3A202D2DC2
:1005C0003E206761747473635F636F6E74657874E3
:1005D0005F6C6F61640D0A0070B505460C4607A09C
:1005E000FCF728FF21462846FFF770FE002803D1BC
:1005F00021462846FFF750FD70BD00005B444D5D6D
:100600003A202D2D3E206761747473635F636F6EB3
:10061000746578745F73746F72650D0A0000000072
:10062000F8B505460D4E0C4608467168284008424C
:1006300008D06946B078FDF72FFA00280CD1009851
:10064000054084437068044201D0012002E0054265
:1006500002D0002000F04CFBF8BD00002C28002048
:1006600070B5044619A0FCF7E5FE20780C2148433C
:10067000214E05218019001DFDF7F2FA20780C218A
:100680004843811960780C2235465043603D40193B
:100690000089091D7EDF010016D120780C2250430D
:1006A0008019427A01231A43427260780C22504327
:1006B0004219907A04231843907262780C235A43AB
:1006C0005219DF2318409072084670BD5B444D5D9F
:1006D0003A20496E6974696174696E672061757446
:1006E00068656E7469636174696F6E207265717597
:1006F0006573740D0A0000002C300020F8B51E4C04
:100700002078002837D02069002807D00026E0682C
:10071000002805D00025002E04D013E00126F6E7BE
:100720000125F8E7684651DF052806D0002806D0E5
:1007300000221146FDF744F904E0012602E0216998
:1007400000988847002D12D1608869460880A0680B
:1007500061DF052806D0002806D000221146FDF7EB
:100760002FF904E0012502E0E168A0688847002E27
:10077000D8D0002DCFD0F8BD6828002030B5098929
:10078000002A05D0D088491C814212D1002030BDFA
:100790000246603214782E256C432418A48DA142A1
:1007A000F4D0491C198011782E2251430818808DED
:1007B00002E01980D088401E5880012030BD000022
:1007C0001048018CC9B2012917D1818C090714D1B5
:1007D000018D09060A0F03D1828D1206120F0ED069
:1007E000090F012903D1828D1206120F07D00329A8
:1007F00003D1808D0006000F01D00020704701203A
:1008000070470000C00F00F0800701D00020704743
:1008100001207047FDF73EFA00F020FF0A21184A38
:100820000846FDF707FA002803D000221146FDF71D
:10083000C7F800200121134B03220C4684402402F8
:10084000640F02D08400E4182260401C2028F4D3F6
:1008500007210D48490581600021C160FDF7FCFBBF
:10086000FDF73AFDFEF7E6FB00F0C2FD07A0FCF73E
:10087000E1FDFDF7CFF9642000F098F8F9E70000FA
:10088000042D0020000700500005005053746172D1
:1008900074696E672E2E2E2E0A00000010B50446D5
:1008A00004A0FCF7C7FD61780CA0FCF7C3FD002095
:1008B00010BD00005B444D5D3A202D2D3E206E6F33
:1008C0005F736572766963655F636F6E7465787474
:1008D0005F6170706C790D0A000000005B444D5D33
:1008E0003A5B4349203078253032585D3A204E6FCC
:1008F000205365727669636520636F6E74657874E2
:100900000D0A000010B502A0FCF794FD002010BDF8
:100910005B444D5D3A202D2D3E206E6F5F736572F6
:10092000766963655F636F6E746578745F6C6F6121
:10093000640D0A0010B502A0FCF77CFD002010BD7C
:100940005B444D5D3A202D2D3E206E6F5F736572C6
:10095000766963655F636F6E746578745F73746FD7
:1009600072650D0A000000007FB501460223603168
:10097000CB7101256A46157300245473157089796B
:100980000C2251430918098A6A4651809480D38009
:1009900003A902914030808B694697DF002803D07D
:1009A00000221146FDF70CF87FBD000031B5054C63
:1009B00004E0401E00902046FCF78CFB00980028C5
:1009C000F7D138BDE703000010B50446008886B0B3
:1009D000192830D01B282CD120460F300390A07B43
:1009E0006946C00808826A4603A90920FCF7D0FFBF
:1009F000002806D06A4603A90820FCF7C9FF002892
:100A000017D16846828811A00099FCF7C9FB00281D
:100A10000FD187DF010002D00EA0FCF70BFD174AB3
:100A200011460831A01D88DF010002D014A0FCF798
:100A300001FD06B010BDA079022805D00328F8D129
:100A40001BA0FCF7F7FCF4E723A0FAE747616D650C
:100A5000720000005B4150504C5D3A205363616E60
:100A60002073746F70206661696C65642C207265F8
:100A700061736F6E2025640D0A000000E01602000D
:100A80005B4150504C5D3A20436F6E6E65637469F4
:100A90006F6E2052657175657374204661696C656F
:100AA000642C20726561736F6E2025640D0A00004E
:100AB0005B4150504C5D3A20436F6E6E65637469C4
:100AC0006F6E20526571756573742054696D65642D
:100AD0006F75742E0D0A00005B4150504C5D3A203A
:100AE0005363616E2054696D65646F75742E0D0AD1
:100AF00000000000F0B5044685B060300190007839
:100B00002E225043061948882746403700283CD1FA
:100B100008310291357908782818032800D9032074
:100B200030710020009014E000980A214843029997
:100B30000A2241180C20684380190390801D891CEB
:100B4000FCF70AFB0398002101820098401C6D1CF1
:100B500000903079A842E7D80C204543A819418875
:100B600001982E22007850430019808D81420CD2CA
:100B70003079032809D0F8772046FDF7A1FA010063
:100B800010D0019A0020507009E00025FD776946D9
:100B90002046FDF795FD010006D0019845702046DE
:100BA000FEF7BEFA05B0F0BD684600780028F9D01F
:100BB000BA8B31880548FCF73DFC01212046FEF741
:100BC00079FA204600F05CF8ECE70000A81A020071
:100BD000FEB50446603001900A4600782E21484355
:100BE000254606194035E87F0C2358438019801D9F
:100BF0008446114650880831002812D11E4B0A88BD
:100C00000DE0062747437F18BF889F4206D1062282
:100C10005043401841886046418102E0401C8242B6
:100C2000EFD8002768460770E87F3179401C88427A
:100C300003D101206946087010E0E8776946204634
:100C4000FDF73EFD010005D0019847702046FEF7F4
:100C500067FAFEBD684600780028FAD0AA8B318872
:100C60000648FCF7E7FB01212046FEF723FA204661
:100C700000F006F8FEBD000002290000541B02002F
:100C8000F8B5054617492C46C8686034401CC86052
:100C90008A680021904222D22F4600224037FA77FC
:100CA00020782E21401CC0B241434E1920700E49BD
:100CB000C000401801883180408870803271BA8B42
:100CC0000A48FCF7B7FBB88B3246012190DF0100E0
:100CD00004D0002060702846FEF722FAF8BD61704B
:100CE000F8BD00001C28002050300020041B02002A
:100CF00010B51D4A1D490300FCF7ACFB05040B3180
:100D000020271200487801281FD0022808D103208C
:100D100005E04878002804D0032801D1022048705B
:100D200010BD134B04201860124B0120186093680B
:100D3000D2689A42F3D0FCF7E3FD10BD4878012851
:100D400006D0022804D00328F7D1FCF711FE10BD0D
:100D50009068D1688142EED1FCF7F8FD10BD48786B
:100D60000128E8D010BD0000E03000202C28002031
:100D7000002500400020004070B5044601460CA04C
:100D8000FCF758FB182015496043451828461130D8
:100D90000621FCF7FAF9002028606860A860E86086
:100DA000FF212974E975204600F082FC70BD000027
:100DB0005B444D5D3A20496E697469616C697A697A
:100DC0006E67205065657220496E7374616E63654D
:100DD000203078253038582E0D0A0000CC2D002008
:100DE00070B50024074D084E05E038206043801997
:100DF000416B8847641CA8688442F6D30020686071
:100E000070BD00001C28002060300020F0B50C4AA6
:100E1000002153681422504301240A4D03273F0444
:100E20001E5822468A40164206D08A005219166879
:100E3000BE43166016681660491C2029F0D3F0BD29
:100E4000442800200007005007490978002906D0EF
:100E5000002806D005494978016000207047082025
:100E600070470E207047000038280020F030002026
:100E700030B5124B1B78002B07D0002807D0002A72
:100E800005D00468002C12D103E0082030BD0E20EC
:100E900030BD0B4B1D68002D09D0456818894143B2
:100EA00069185D89454358682818884201D8072089
:100EB00030BD14600020516030BD00003828002093
:100EC00044310020F8B505461B480F46007800283D
:100ED00005D0002D05D02868002820D103E0082087
:100EE000F8BD0E20F8BD154C00262068002816D04D
:100EF00060892189484361684118686881420ED938
:100F0000FFF782FC00280CD02968686809010919DC
:100F10004A680989801AFCF709F9002903D00720DB
:100F2000F8BD1020F8BD3B4600222946042000965B
:100F3000FDF7B2FAF8BD0000382800204431002047
:100F400010B507484469601C06D000F00BF8014654
:100F50002046FCF7EBF810BD01200007406910BDEA
:100F60000010001001200007006980B270470000E7
:100F7000F8B50024184D194EAC806C703470747044
:100F8000B47027463846FDF777FA7F1C042FF9D353
:100F90006C80FFF7D5FF871EFFF7E4FF47430F483C
:100FA000AF60AC80543004600481848144810820A7
:100FB0006870FFF7D7FF0746FFF7C2FF441EFFF731
:100FC000D1FF60433946FCF7B1F828DF002802D191
:100FD0000121B1702970F8BD38280020F0300020C0
:100FE000FFB5264881B000781F4616460D460028FA
:100FF00008D0002D09D00198002806D028680028C4
:1010000018D104E0082005B0F0BD0E20FBE71C4C11
:10101000206800280ED061892089626841438918C0
:101020006A68914206D9002E04D0B04202D3F11969
:10103000814201D90720E6E70198FFF7E5FB002888
:101040001AD03846FFF7E0FB002815D06868FFF794
:10105000DBFB002810D068683246C1190198FCF704
:101060007BF80096286800220001245803212846B6
:10107000019BA0470020C6E71020C4E738280020C5
:1010800044310020F8B5374D044628780E46002834
:101090002ED0002C2ED0002E2CD02068002829D055
:1010A000FFF760FF0146A088814228D3102826D38D
:1010B000E088002823D0FFF743FF471EFFF752FFC9
:1010C0004743E088A1884843A9684018874216D35F
:1010D000FFF748FF0146E088A288504381420BDABF
:1010E000FFF740FFA188FCF721F8002907D103E0B2
:1010F0000820F8BD0E20F8BD2079800701D0072018
:10110000F8BD688801281BD03060174FA96802011C
:10111000D019716041602168B950A1880181E188CE
:101120004181A088E188002648430446761CB6B277
:10113000FFF718FFA04205D2FFF714FF241A02E0C0
:101140000420F8BD0024FFF70DFFA9684018A8602F
:10115000002CEBD168880101C9198E81401C688080
:101160000020F8BD3828002044310020F8B504469E
:1011700020481E46007815460F46002807D0002F4D
:1011800007D0002C05D02068002817D103E00820E4
:10119000F8BD0E20F8BD1848016800290ED042891C
:1011A000018940684A4310186268904206D9002DB0
:1011B00004D0A94202D3A819884201D90720F8BD5A
:1011C0003846FFF721FB002811D03046FFF71CFB03
:1011D00000280CD06068FFF717FB002807D02B46CB
:1011E0003A46214602200096FDF756F9F8BD102038
:1011F000F8BD00003828002044310020F8B507462B
:101200000020464E8646B07801281ED10020444B6F
:10121000B0705A78082A19D03446257814216943C9
:101220000C19022F20D0032F0FD16079401CC0B2BF
:101230006071241D03286AD0FDF78EF8002804D0C1
:10124000112802D02146FCF7B1FCF8BD022F09D0CD
:101250001870FDF7FDF80028F7D0317814225143BB
:10126000891959E05870F4E72D498B885B1C9EB2B0
:101270008E802379241D022B05D16788B102B942E3
:1012800001D3012100E000218C46052B01D1072A62
:1012900003D00021042B02D003E00121FAE7072A42
:1012A00003D00027042B02D007E00127FAE7648867
:1012B000B302A34201D3002A27D0002239431143AD
:1012C0006246114317D0164A1449507090804878EE
:1012D000401E4870681CC0B20870042801D3001F6B
:1012E00008701420684341187046091DFCF75EFC25
:1012F0002846FDF7C1F8FDF7ABF80028A5D007494F
:1013000014230A785A43511806E00122D6E73078B0
:101310001421484381190D20091D94E7F030002065
:1013200038280020F8B5044620481E4600781546A7
:101330000F46002807D0002F07D0002C05D02068CA
:10134000002817D103E00820F8BD0E20F8BD18488A
:10135000016800290ED04289018940684A4310186B
:101360006268904206D9002D04D0A94202D3A81980
:10137000884201D90720F8BD3846FFF745FA002812
:1013800011D03046FFF740FA00280CD06068FFF714
:101390003BFA002807D02B463A4621460520009606
:1013A000FDF77AF8F8BD1020F8BD000038280020BD
:1013B0004431002070B50D4B00210B4A9B680EE0B4
:1013C000CC00A518AD788678B54207D1145B0588A6
:1013D000AC4203D1C8008018406870BD491C9942D6
:1013E000EED3002070BD0000503000201C280020EB
:1013F00008B56846FFF728FD002803D000221146F3
:10140000FCF7DEFA0098002803D006490120487056
:1014100008BD054886DF0028FAD000221146FCF7F7
:10142000CFFA08BD02280020E8160200F0B500221D
:101430000123032636041F469740394212D0C5685F
:101440003D4203D1012464043D4301E03446BD43E1
:10145000C560064D97007D192F68B7432F602F6830
:1014600027432F60521C202AE5D3F0BD000700500F
:1014700010B508461146C046C04610BD002803D02E
:101480000249C860002070470E207047682800207D
:1014900070B5002901D08C0701D0072070BD064C23
:1014A0000125A16062800549636010DF0028F5D145
:1014B000257016202EDF70BD6828002071140200F0
:1014C000002803D002490861002070470E207047B1
:1014D0006828002000207047FFB581B0484C0E46B8
:1014E000039F049A0546617803201743002903D11E
:1014F000002F0DD001216170039AC9B292000092B1
:101500000B00FBF7A7FF072C071B2E465D6C2C007A
:101510000221F0E7FFF726FD8708FFF723FD704360
:101520000546FFF70DFD461EFFF71CFD70433A46CA
:10153000294629DF002812D102210FE0304628DF9A
:1015400000280CD10399002901D0032106E0049959
:10155000002917D12978042950D018E0617005B00E
:10156000F0BDFFF7EDFC471EFFF7FCFC4743FFF71C
:10157000F9FC70433946039A29DF0028EFD104991A
:10158000002901D00421E9E72978042925D0052183
:10159000E4E7FFF7D5FC471EFFF7E4FC4743688804
:1015A000391800980F18FFF7DDFC6988704341185F
:1015B0000098049A0818394629DF0028E4D0CEE7BD
:1015C000FFF7D0FC00997043401869888A082969A0
:1015D00029DF0028C3D1002F10D00621BEE7FFF776
:1015E000C1FC0646FFF7ACFC451EFFF7BBFC684399
:1015F0003146FBF79BFD28DF0028B0D10721ADE77E
:101600003828002010B50446FFF7F8FD022C01D061
:10161000032C07D104484178002903D000214170F0
:10162000FFF7E6FE10BD00000228002010B501788B
:10163000022901D0012904D1002240681146FCF79B
:10164000BFF910BD10B50178022901D0012904D1DC
:10165000002240681146FCF7B3F910BD00B5104AEE
:1016600089B007CA05AB07C30020694608840D4846
:101670000190012002900C480390FF20013004905B
:1016800008A800900323094A01A905A8FCF726FB36
:10169000002803D000221146FCF792F909B000BDE2
:1016A000F816020004280020042C00204516020031
:1016B00001218140024842688A434260704700002D
:1016C0000C280020FB349B5F80000080001000008D
:1016D00000180000150000001600000017000000B0
:1016E0000800100000009001000000000000000051
:1016F000A0005000000000000B09080A00000000D4
:1017000000509D0035090200CD0202009900020040
:10171000D905020005090200F10102006D00020076
:10172000950502009D080200C5000200410002006C
:10173000550502000B09080A0000000000E0D7016F
:101740005B4150504C5D3A5B3078253032585D201B
:101750003E3E20444D5F4556545F534543555249E4
:1017600054595F53455455505F434F4D504C455469
:10177000452C20726573756C74203078253038588C
:101780000D0A00005B4150504C5D3A5B25303258E9
:10179000202530325820253032582025303258202C
:1017A0002530325820253032585D3A20436F6E6E16
:1017B000656374696F6E2045737461626C697368E8
:1017C00065640D0A000000005B444D5D3A205365DE
:1017D00061726368696E6720666F722064657669FE
:1017E00063652030782530325820307825303258E3
:1017F000203078253032582030782530325820304B
:101800007825303258203078253032582E0D0A0095
:101810005B444D5D3A5B253032585D3A2046616944
:101820006C656420746F2067657420626C6F636BF5
:10183000206964656E74696669657220666F7220DE
:1018400064657669636520253038582C207265619F
:10185000736F6E20253038582E0D0A005B444D5DA5
:101860003A204661696C656420746F206765742056
:10187000626C6F636B2068616E646C6520666F726A
:1018800020696E7374616E636520253038582C2092
:10189000726561736F6E20253038582E0D0A000076
:1018A0005B444D5D3A204661696C656420746F202D
:1018B0006C6F61642070656572206465766963652C
:1018C00020253038582066726F6D2073746F7261F6
:1018D00067652C20726561736F6E20253038582E35
:1018E0000D0A00005B444D5D3A5B253032585D3A8D
:1018F0005B426C6F636B2049442030782530385848
:101900005D3A4C6F6164696E6720626F6E64206936
:101910006E666F726D6174696F6E206174202570E0
:101920002C2073697A65203078253038582C206F48
:101930006666736574203078253038582E0D0A009D
:101940005B444D5D3A5B253032585D3A4C6F6164C3
:10195000696E67207365727669636520636F6E7464
:101960006578742061742025702C2073697A652055
:101970003078253038582C206F66667365742030B7
:1019800078253038582E0D0A000000005B444D5D6C
:101990003A5B3078253032585D3A5B30782530320A
:1019A000585D3A20526573657474696E6720626F82
:1019B0006E6420696E666F726D6174696F6E206609
:1019C0006F722061637469766520696E7374616EED
:1019D00063652E0D0A0000005B444D5D3A5B44498F
:1019E00020253032585D3A5B434920253032585D1E
:1019F0003A202D3E204E6F20757064617465206919
:101A00006E20626F6E64696E6720696E666F726DBC
:101A10006174696F6E2E0D0A000000005B444D5D1D
:101A20003A203E3E20424C455F4741505F45565468
:101A30005F434F4E4E5F5345435F555044415445BD
:101A40002C204D6F6465203078253032582C204C86
:101A50006576656C203078253032580D0A0000001C
:101A60005B444D5D3A5B253032585D3A5B426C6FAA
:101A7000636B204944203078253038585D3A205334
:101A800065727669636520636F6E74657874206C27
:101A90006F616465642C2073697A65203078253025
:101AA00038580D0A000000005B44425D3A2044694A
:101AB00073636F76657279206F66207365727669DD
:101AC000636520776974682055554944203078252E
:101AD0007820636F6D706C657465642077697468D5
:101AE000207375636365737320666F7220436F6E36
:101AF0006E656374696F6E2068616E646C65202525
:101B0000640D0A005B44425D3A205374617274694B
:101B10006E6720646973636F76657279206F6620E3
:101B200073657276696365207769746820555549D5
:101B300044203078257820666F7220436F6E6E6582
:101B40006374696F6E2068616E646C652025640D36
:101B50000A0000005B44425D3A20446973636F767B
:101B6000657279206F662073657276696365207788
:101B70006974682055554944203078257820636F72
:101B80006D706C6574656420776974682073756323
:101B90006365737320666F7220436F6E6E65637446
:101BA000696F6E68616E646C652025640D0A0000C3
:101BB000D01B0200002800207C0000006ED4010031
:101BC0004C1C02007C280020DC1100007ED40100A7
:101BD00000000000000000000024F40000000000ED
:101BE00000000000000000000000000000000000F5
:101BF00000000000000000000000000001000000E4
:101C000000000000000000000000000000000000D4
:101C100000000000000000000000000000000000C4
:101C200000000000000000000000000000000000B4
:101C300000000000000000000000000000000000A4
:0C1C400000000000000000000000000098
:040000050001D0C165
:00000001FF
